{
  "_format": "hh-sol-artifact-1",
  "contractName": "PrambCover",
  "sourceName": "contracts/pramb_cover.sol",
  "abi": [
    {
      "inputs": [
        {
          "internalType": "address",
          "name": "_admin",
          "type": "address"
        },
        {
          "internalType": "address",
          "name": "_treasury",
          "type": "address"
        }
      ],
      "stateMutability": "nonpayable",
      "type": "constructor"
    },
    {
      "anonymous": false,
      "inputs": [
        {
          "indexed": false,
          "internalType": "string",
          "name": "protocol",
          "type": "string"
        },
        {
          "indexed": false,
          "internalType": "address",
          "name": "token",
          "type": "address"
        },
        {
          "indexed": false,
          "internalType": "uint256",
          "name": "max_capacity",
          "type": "uint256"
        }
      ],
      "name": "AddTokenCover",
      "type": "event"
    },
    {
      "anonymous": false,
      "inputs": [
        {
          "indexed": false,
          "internalType": "string",
          "name": "name",
          "type": "string"
        },
        {
          "indexed": false,
          "internalType": "uint256",
          "name": "rate_per_day",
          "type": "uint256"
        }
      ],
      "name": "CreateProtocol",
      "type": "event"
    },
    {
      "anonymous": false,
      "inputs": [
        {
          "indexed": false,
          "internalType": "uint256",
          "name": "cover_id",
          "type": "uint256"
        },
        {
          "indexed": false,
          "internalType": "string",
          "name": "protocol",
          "type": "string"
        },
        {
          "indexed": false,
          "internalType": "address",
          "name": "user",
          "type": "address"
        },
        {
          "indexed": false,
          "internalType": "uint256",
          "name": "amount",
          "type": "uint256"
        },
        {
          "indexed": false,
          "internalType": "uint256",
          "name": "cost",
          "type": "uint256"
        },
        {
          "indexed": false,
          "internalType": "uint256",
          "name": "start_time",
          "type": "uint256"
        },
        {
          "indexed": false,
          "internalType": "uint256",
          "name": "end_time",
          "type": "uint256"
        },
        {
          "indexed": false,
          "internalType": "address",
          "name": "token",
          "type": "address"
        },
        {
          "indexed": false,
          "internalType": "uint256",
          "name": "current_capacity",
          "type": "uint256"
        },
        {
          "indexed": false,
          "internalType": "string",
          "name": "ref_code",
          "type": "string"
        }
      ],
      "name": "CreateUserCover",
      "type": "event"
    },
    {
      "anonymous": false,
      "inputs": [
        {
          "indexed": false,
          "internalType": "uint256",
          "name": "cover_id",
          "type": "uint256"
        },
        {
          "indexed": false,
          "internalType": "string",
          "name": "protocol",
          "type": "string"
        },
        {
          "indexed": false,
          "internalType": "address",
          "name": "user",
          "type": "address"
        },
        {
          "indexed": false,
          "internalType": "uint256",
          "name": "amount",
          "type": "uint256"
        },
        {
          "indexed": false,
          "internalType": "uint256",
          "name": "cost",
          "type": "uint256"
        },
        {
          "indexed": false,
          "internalType": "uint256",
          "name": "start_time",
          "type": "uint256"
        },
        {
          "indexed": false,
          "internalType": "uint256",
          "name": "end_time",
          "type": "uint256"
        },
        {
          "indexed": false,
          "internalType": "address",
          "name": "token",
          "type": "address"
        },
        {
          "indexed": false,
          "internalType": "string",
          "name": "ref_code",
          "type": "string"
        }
      ],
      "name": "ExtendUserCover",
      "type": "event"
    },
    {
      "inputs": [
        {
          "internalType": "string",
          "name": "protocol_name",
          "type": "string"
        },
        {
          "internalType": "address",
          "name": "token",
          "type": "address"
        },
        {
          "internalType": "uint256",
          "name": "max_capacity",
          "type": "uint256"
        }
      ],
      "name": "addTokenCover",
      "outputs": [],
      "stateMutability": "nonpayable",
      "type": "function"
    },
    {
      "inputs": [],
      "name": "admin",
      "outputs": [
        {
          "internalType": "address",
          "name": "",
          "type": "address"
        }
      ],
      "stateMutability": "view",
      "type": "function"
    },
    {
      "inputs": [],
      "name": "base_denominator",
      "outputs": [
        {
          "internalType": "uint256",
          "name": "",
          "type": "uint256"
        }
      ],
      "stateMutability": "view",
      "type": "function"
    },
    {
      "inputs": [
        {
          "internalType": "string",
          "name": "protocol",
          "type": "string"
        },
        {
          "internalType": "uint256",
          "name": "amount",
          "type": "uint256"
        },
        {
          "internalType": "uint256",
          "name": "cost",
          "type": "uint256"
        },
        {
          "internalType": "uint256",
          "name": "day_s",
          "type": "uint256"
        },
        {
          "internalType": "address",
          "name": "token",
          "type": "address"
        },
        {
          "internalType": "string",
          "name": "ref_code",
          "type": "string"
        }
      ],
      "name": "buyCover",
      "outputs": [],
      "stateMutability": "nonpayable",
      "type": "function"
    },
    {
      "inputs": [
        {
          "internalType": "string",
          "name": "name",
          "type": "string"
        },
        {
          "internalType": "uint256",
          "name": "rate_per_day",
          "type": "uint256"
        }
      ],
      "name": "createProtocol",
      "outputs": [],
      "stateMutability": "nonpayable",
      "type": "function"
    },
    {
      "inputs": [],
      "name": "current_id",
      "outputs": [
        {
          "internalType": "uint256",
          "name": "",
          "type": "uint256"
        }
      ],
      "stateMutability": "view",
      "type": "function"
    },
    {
      "inputs": [],
      "name": "dev",
      "outputs": [
        {
          "internalType": "address",
          "name": "",
          "type": "address"
        }
      ],
      "stateMutability": "view",
      "type": "function"
    },
    {
      "inputs": [
        {
          "internalType": "string",
          "name": "protocol",
          "type": "string"
        },
        {
          "internalType": "uint256",
          "name": "cover_id",
          "type": "uint256"
        },
        {
          "internalType": "uint256",
          "name": "cost",
          "type": "uint256"
        },
        {
          "internalType": "uint256",
          "name": "extend_day_s",
          "type": "uint256"
        },
        {
          "internalType": "string",
          "name": "ref_code",
          "type": "string"
        }
      ],
      "name": "extendUserCover",
      "outputs": [],
      "stateMutability": "nonpayable",
      "type": "function"
    },
    {
      "inputs": [
        {
          "internalType": "string",
          "name": "",
          "type": "string"
        }
      ],
      "name": "protocols",
      "outputs": [
        {
          "internalType": "string",
          "name": "name",
          "type": "string"
        },
        {
          "internalType": "uint256",
          "name": "rate_per_day",
          "type": "uint256"
        }
      ],
      "stateMutability": "view",
      "type": "function"
    },
    {
      "inputs": [
        {
          "internalType": "string",
          "name": "",
          "type": "string"
        },
        {
          "internalType": "address",
          "name": "",
          "type": "address"
        }
      ],
      "name": "token_capacities",
      "outputs": [
        {
          "internalType": "address",
          "name": "token",
          "type": "address"
        },
        {
          "internalType": "uint256",
          "name": "capacity",
          "type": "uint256"
        },
        {
          "internalType": "uint256",
          "name": "max_capacity",
          "type": "uint256"
        }
      ],
      "stateMutability": "view",
      "type": "function"
    },
    {
      "inputs": [],
      "name": "treasury",
      "outputs": [
        {
          "internalType": "address",
          "name": "",
          "type": "address"
        }
      ],
      "stateMutability": "view",
      "type": "function"
    },
    {
      "inputs": [
        {
          "internalType": "address",
          "name": "_admin",
          "type": "address"
        }
      ],
      "name": "updateAdmin",
      "outputs": [],
      "stateMutability": "nonpayable",
      "type": "function"
    },
    {
      "inputs": [
        {
          "internalType": "string",
          "name": "protocol_name",
          "type": "string"
        },
        {
          "internalType": "address",
          "name": "token",
          "type": "address"
        },
        {
          "internalType": "uint256",
          "name": "new_current_capacity",
          "type": "uint256"
        },
        {
          "internalType": "uint256",
          "name": "new_max_capacity",
          "type": "uint256"
        }
      ],
      "name": "updateCapacityToken",
      "outputs": [],
      "stateMutability": "nonpayable",
      "type": "function"
    },
    {
      "inputs": [
        {
          "internalType": "string",
          "name": "protocol_name",
          "type": "string"
        },
        {
          "internalType": "uint256",
          "name": "rate_per_day",
          "type": "uint256"
        }
      ],
      "name": "updateRateProtocol",
      "outputs": [],
      "stateMutability": "nonpayable",
      "type": "function"
    },
    {
      "inputs": [
        {
          "internalType": "uint256",
          "name": "",
          "type": "uint256"
        }
      ],
      "name": "user_covers",
      "outputs": [
        {
          "internalType": "uint256",
          "name": "cover_id",
          "type": "uint256"
        },
        {
          "internalType": "string",
          "name": "protocol",
          "type": "string"
        },
        {
          "internalType": "address",
          "name": "user",
          "type": "address"
        },
        {
          "internalType": "uint256",
          "name": "amount",
          "type": "uint256"
        },
        {
          "internalType": "uint256",
          "name": "cost",
          "type": "uint256"
        },
        {
          "internalType": "uint256",
          "name": "start_time",
          "type": "uint256"
        },
        {
          "internalType": "uint256",
          "name": "end_time",
          "type": "uint256"
        },
        {
          "internalType": "address",
          "name": "token",
          "type": "address"
        }
      ],
      "stateMutability": "view",
      "type": "function"
    },
    {
      "inputs": [
        {
          "internalType": "address",
          "name": "token",
          "type": "address"
        }
      ],
      "name": "withdrawToken",
      "outputs": [],
      "stateMutability": "nonpayable",
      "type": "function"
    }
  ],
  "bytecode": "0x6080604052620f42406000908155600180546001600160a01b0319167343abc289364bd20bf625c3273a0a140e33588f1c1790556004553480156200004357600080fd5b5060405162001f5438038062001f548339810160408190526200006691620000b5565b600280546001600160a01b039384166001600160a01b03199182161790915560038054929093169116179055620000ed565b80516001600160a01b0381168114620000b057600080fd5b919050565b60008060408385031215620000c957600080fd5b620000d48362000098565b9150620000e46020840162000098565b90509250929050565b611e5780620000fd6000396000f3fe608060405234801561001057600080fd5b50600436106101005760003560e01c8063929ec45511610097578063e2f273bd11610066578063e2f273bd1461028e578063f7d94d8c146102a1578063f851a440146102b4578063fac3a8fc146102c757600080fd5b8063929ec455146101e257806398d45960146101f9578063bb1e3a2614610202578063c5b70a121461021557600080fd5b8063647175d2116100d3578063647175d2146101965780636ea6c87d146101a957806389476069146101bc57806391cca3db146101cf57600080fd5b80631dae94541461010557806328b850251461012f57806335be90021461014457806361d027b31461016b575b600080fd5b61011861011336600461174f565b6102da565b6040516101269291906117dc565b60405180910390f35b61014261013d3660046117fe565b610389565b005b610157610152366004611843565b610483565b60405161012698979695949392919061185c565b60035461017e906001600160a01b031681565b6040516001600160a01b039091168152602001610126565b6101426101a43660046118d3565b61055a565b6101426101b736600461192a565b61070c565b6101426101ca3660046119ab565b610bf7565b60015461017e906001600160a01b031681565b6101eb60045481565b604051908152602001610126565b6101eb60005481565b6101426102103660046119cd565b610d69565b610269610223366004611a2a565b8151602081840181018051600682529282019482019490942091909352909152600090815260409020805460018201546002909201546001600160a01b03909116919083565b604080516001600160a01b039094168452602084019290925290820152606001610126565b61014261029c3660046119ab565b610ed5565b6101426102af366004611a78565b610f60565b60025461017e906001600160a01b031681565b6101426102d53660046117fe565b61147e565b805160208183018101805160058252928201919093012091528054819061030090611b08565b80601f016020809104026020016040519081016040528092919081815260200182805461032c90611b08565b80156103795780601f1061034e57610100808354040283529160200191610379565b820191906000526020600020905b81548152906001019060200180831161035c57829003601f168201915b5050505050908060010154905082565b6002546001600160a01b03163314806103ac57506001546001600160a01b031633145b6103ea5760405162461bcd60e51b815260206004820152600a60248201526937b7363c9030b236b4b760b11b60448201526064015b60405180910390fd5b6005826040516103fa9190611b42565b90815260200160405180910390206001015460000361045b5760405162461bcd60e51b815260206004820152601260248201527f70726f746f636f6c206e6f74206578697374000000000000000000000000000060448201526064016103e1565b8060058360405161046c9190611b42565b908152604051908190036020019020600101555050565b600760205260009081526040902080546001820180549192916104a590611b08565b80601f01602080910402602001604051908101604052809291908181526020018280546104d190611b08565b801561051e5780601f106104f35761010080835404028352916020019161051e565b820191906000526020600020905b81548152906001019060200180831161050157829003601f168201915b505050506002830154600384015460048501546005860154600687015460079097015495966001600160a01b0394851696939550919390921688565b6002546001600160a01b031633148061057d57506001546001600160a01b031633145b6105b65760405162461bcd60e51b815260206004820152600a60248201526937b7363c9030b236b4b760b11b60448201526064016103e1565b6006836040516105c69190611b42565b90815260408051602092819003830190206001600160a01b03851660009081529252812060020154900361063c5760405162461bcd60e51b815260206004820152601360248201527f746f6b656e20616c72656164792065786973740000000000000000000000000060448201526064016103e1565b6040518060600160405280836001600160a01b0316815260200160008152602001828152506006846040516106719190611b42565b90815260408051602092819003830181206001600160a01b038781166000908152918552908390208551815473ffffffffffffffffffffffffffffffffffffffff191692169190911781559284015160018401559201516002909101557f29e5c84bd5e6ec7fadae9b1767763a2c5edd242e653d47c530e9998aff33b405906106ff90859085908590611b5e565b60405180910390a1505050565b600060076000868152602001908152602001600020604051806101000160405290816000820154815260200160018201805461074790611b08565b80601f016020809104026020016040519081016040528092919081815260200182805461077390611b08565b80156107c05780601f10610795576101008083540402835291602001916107c0565b820191906000526020600020905b8154815290600101906020018083116107a357829003601f168201915b505050918352505060028201546001600160a01b039081166020830152600383015460408301526004830154606083015260058301546080830152600683015460a083015260079092015490911660c090910152805190915085146108675760405162461bcd60e51b815260206004820152600f60248201527f636f766572206e6f74206578697374000000000000000000000000000000000060448201526064016103e1565b60408101516001600160a01b031633146108c35760405162461bcd60e51b815260206004820152600960248201527f6e6f74206f776e6572000000000000000000000000000000000000000000000060448201526064016103e1565b856040516020016108d49190611b42565b6040516020818303038152906040528051906020012081602001516040516020016108ff9190611b42565b60405160208183030381529060405280519060200120146109625760405162461bcd60e51b815260206004820152601060248201527f696e76616c69642070726f746f636f6c0000000000000000000000000000000060448201526064016103e1565b60a0810151600061098061097986620151806115d8565b839061164e565b905060006109b18660058b6040516109989190611b42565b90815260405190819003602001902060010154906115d8565b9050600080546109ce8387606001516115d890919063ffffffff16565b6109d89190611ba2565b9050808814610a185760405162461bcd60e51b815260206004820152600c60248201526b1a5b9d985b1a590818dbdcdd60a21b60448201526064016103e1565b60e08501516003546040516323b872dd60e01b81523360048201526001600160a01b039182166024820152604481018b90529116906323b872dd906064016020604051808303816000875af1158015610a75573d6000803e3d6000fd5b505050506040513d601f19601f82011682018060405250810190610a999190611bc4565b5060408051610100810182528a815260208781015181830190815233838501526060808a015190840152608083018c905260a0830188905260c0830187905260e0808a01516001600160a01b03169084015260008d81526007909252929020815181559151909182916001820190610b119082611c36565b5060408201518160020160006101000a8154816001600160a01b0302191690836001600160a01b03160217905550606082015181600301556080820151816004015560a0820151816005015560c0820151816006015560e08201518160070160006101000a8154816001600160a01b0302191690836001600160a01b031602179055509050507f023182e1cc1031b8f02a688a48faf56b1bbac8c386eb2ca972cb2e3d7d5c08118a87602001513389606001518d8a8a8d60e001518f604051610be299989796959493929190611cf6565b60405180910390a15050505050505050505050565b6002546001600160a01b0316331480610c1a57506001546001600160a01b031633145b610c535760405162461bcd60e51b815260206004820152600a60248201526937b7363c9030b236b4b760b11b60448201526064016103e1565b6040517f70a082310000000000000000000000000000000000000000000000000000000081523060048201526000906001600160a01b038316906370a0823190602401602060405180830381865afa158015610cb3573d6000803e3d6000fd5b505050506040513d601f19601f82011682018060405250810190610cd79190611d66565b6040517fa9059cbb000000000000000000000000000000000000000000000000000000008152336004820152602481018290529091506001600160a01b0383169063a9059cbb906044016020604051808303816000875af1158015610d40573d6000803e3d6000fd5b505050506040513d601f19601f82011682018060405250810190610d649190611bc4565b505050565b6002546001600160a01b0316331480610d8c57506001546001600160a01b031633145b610dc55760405162461bcd60e51b815260206004820152600a60248201526937b7363c9030b236b4b760b11b60448201526064016103e1565b600684604051610dd59190611b42565b90815260408051602092819003830190206001600160a01b038616600090815292528120600201549003610e4b5760405162461bcd60e51b815260206004820152600f60248201527f746f6b656e206e6f74206578697374000000000000000000000000000000000060448201526064016103e1565b80600685604051610e5c9190611b42565b9081526040805191829003602090810183206001600160a01b0388166000908152915220600201919091558290600690610e97908790611b42565b90815260200160405180910390206000856001600160a01b03166001600160a01b031681526020019081526020016000206001018190555050505050565b6002546001600160a01b0316331480610ef857506001546001600160a01b031633145b610f315760405162461bcd60e51b815260206004820152600a60248201526937b7363c9030b236b4b760b11b60448201526064016103e1565b6002805473ffffffffffffffffffffffffffffffffffffffff19166001600160a01b0392909216919091179055565b600586604051610f709190611b42565b908152602001604051809103902060010154600003610fd15760405162461bcd60e51b815260206004820152601260248201527f70726f746f636f6c206e6f74206578697374000000000000000000000000000060448201526064016103e1565b600686604051610fe19190611b42565b90815260408051602092819003830190206001600160a01b0385166000908152925281206001015490036110575760405162461bcd60e51b815260206004820152600f60248201527f746f6b656e206e6f74206578697374000000000000000000000000000000000060448201526064016103e1565b61109960068760405161106a9190611b42565b90815260408051602092819003830190206001600160a01b03861660009081529252902060010154869061164e565b6006876040516110a99190611b42565b90815260408051602092819003830190206001600160a01b03861660009081529252902060020154101561111f5760405162461bcd60e51b815260206004820152601360248201527f6e6f7420656e6f7567682063617061636974790000000000000000000000000060448201526064016103e1565b6000841161115e5760405162461bcd60e51b815260206004820152600c60248201526b1a5b9d985b1a590818dbdcdd60a21b60448201526064016103e1565b60045486908690339060009061117590600161164e565b6004819055905042600061118f6109798a620151806115d8565b905060006111a78a60058f6040516109989190611b42565b60008054919250906111b98e846115d8565b6111c39190611ba2565b9050808c146112035760405162461bcd60e51b815260206004820152600c60248201526b1a5b9d985b1a590818dbdcdd60a21b60448201526064016103e1565b6003546040516323b872dd60e01b81526001600160a01b0388811660048301529182166024820152604481018390528b918216906323b872dd906064016020604051808303816000875af115801561125f573d6000803e3d6000fd5b505050506040513d601f19601f820116820180604052508101906112839190611bc4565b5060006112c88960068c60405161129a9190611b42565b90815260408051602092819003830190206001600160a01b038716600090815292529020600101549061164e565b90508060068b6040516112db9190611b42565b908152602001604051809103902060008e6001600160a01b03166001600160a01b031681526020019081526020016000206001018190555060006040518061010001604052808981526020018c81526020018a6001600160a01b031681526020018b81526020018581526020018881526020018781526020018e6001600160a01b0316815250905080600760008a81526020019081526020016000206000820151816000015560208201518160010190816113969190611c36565b5060408201518160020160006101000a8154816001600160a01b0302191690836001600160a01b03160217905550606082015181600301556080820151816004015560a0820151816005015560c0820151816006015560e08201518160070160006101000a8154816001600160a01b0302191690836001600160a01b0316021790555090505060008c90507fdc03f6ad1bbd2557c41595e2837d0dd31137d70212cf6eedb2b5a2a341ffad37898d8c8e898d8d8b8b8a6040516114629a99989796959493929190611d7f565b60405180910390a1505050505050505050505050505050505050565b6002546001600160a01b03163314806114a157506001546001600160a01b031633145b6114da5760405162461bcd60e51b815260206004820152600a60248201526937b7363c9030b236b4b760b11b60448201526064016103e1565b6005826040516114ea9190611b42565b90815260200160405180910390206001015460000361154b5760405162461bcd60e51b815260206004820152601660248201527f70726f746f636f6c20616c72656164792065786973740000000000000000000060448201526064016103e1565b6040518060400160405280838152602001828152506005836040516115709190611b42565b9081526040519081900360200190208151819061158d9082611c36565b50602082015181600101559050507f1ffc3699385af2402afe1e8331a60c95caa9c1dac59c35697223ba03c3ac602182826040516115cc9291906117dc565b60405180910390a15050565b60008115806115fc575082826115ee8183611df7565b92506115fa9083611ba2565b145b6116485760405162461bcd60e51b815260206004820152601460248201527f64732d6d6174682d6d756c2d6f766572666c6f7700000000000000000000000060448201526064016103e1565b92915050565b60008261165b8382611e0e565b91508110156116485760405162461bcd60e51b815260206004820152601460248201527f64732d6d6174682d6164642d6f766572666c6f7700000000000000000000000060448201526064016103e1565b634e487b7160e01b600052604160045260246000fd5b600082601f8301126116d357600080fd5b813567ffffffffffffffff808211156116ee576116ee6116ac565b604051601f8301601f19908116603f01168101908282118183101715611716576117166116ac565b8160405283815286602085880101111561172f57600080fd5b836020870160208301376000602085830101528094505050505092915050565b60006020828403121561176157600080fd5b813567ffffffffffffffff81111561177857600080fd5b611784848285016116c2565b949350505050565b60005b838110156117a757818101518382015260200161178f565b50506000910152565b600081518084526117c881602086016020860161178c565b601f01601f19169290920160200192915050565b6040815260006117ef60408301856117b0565b90508260208301529392505050565b6000806040838503121561181157600080fd5b823567ffffffffffffffff81111561182857600080fd5b611834858286016116c2565b95602094909401359450505050565b60006020828403121561185557600080fd5b5035919050565b60006101008a83528060208401526118768184018b6117b0565b9150506001600160a01b0380891660408401528760608401528660808401528560a08401528460c084015280841660e0840152509998505050505050505050565b80356001600160a01b03811681146118ce57600080fd5b919050565b6000806000606084860312156118e857600080fd5b833567ffffffffffffffff8111156118ff57600080fd5b61190b868287016116c2565b93505061191a602085016118b7565b9150604084013590509250925092565b600080600080600060a0868803121561194257600080fd5b853567ffffffffffffffff8082111561195a57600080fd5b61196689838a016116c2565b9650602088013595506040880135945060608801359350608088013591508082111561199157600080fd5b5061199e888289016116c2565b9150509295509295909350565b6000602082840312156119bd57600080fd5b6119c6826118b7565b9392505050565b600080600080608085870312156119e357600080fd5b843567ffffffffffffffff8111156119fa57600080fd5b611a06878288016116c2565b945050611a15602086016118b7565b93969395505050506040820135916060013590565b60008060408385031215611a3d57600080fd5b823567ffffffffffffffff811115611a5457600080fd5b611a60858286016116c2565b925050611a6f602084016118b7565b90509250929050565b60008060008060008060c08789031215611a9157600080fd5b863567ffffffffffffffff80821115611aa957600080fd5b611ab58a838b016116c2565b9750602089013596506040890135955060608901359450611ad860808a016118b7565b935060a0890135915080821115611aee57600080fd5b50611afb89828a016116c2565b9150509295509295509295565b600181811c90821680611b1c57607f821691505b602082108103611b3c57634e487b7160e01b600052602260045260246000fd5b50919050565b60008251611b5481846020870161178c565b9190910192915050565b606081526000611b7160608301866117b0565b6001600160a01b039490941660208301525060400152919050565b634e487b7160e01b600052601160045260246000fd5b600082611bbf57634e487b7160e01b600052601260045260246000fd5b500490565b600060208284031215611bd657600080fd5b815180151581146119c657600080fd5b601f821115610d64576000816000526020600020601f850160051c81016020861015611c0f5750805b601f850160051c820191505b81811015611c2e57828155600101611c1b565b505050505050565b815167ffffffffffffffff811115611c5057611c506116ac565b611c6481611c5e8454611b08565b84611be6565b602080601f831160018114611c995760008415611c815750858301515b600019600386901b1c1916600185901b178555611c2e565b600085815260208120601f198616915b82811015611cc857888601518255948401946001909101908401611ca9565b5085821015611ce65787850151600019600388901b60f8161c191681555b5050505050600190811b01905550565b60006101208b8352806020840152611d108184018c6117b0565b90506001600160a01b03808b1660408501528960608501528860808501528760a08501528660c085015280861660e085015250828103610100840152611d5681856117b0565b9c9b505050505050505050505050565b600060208284031215611d7857600080fd5b5051919050565b60006101408c8352806020840152611d998184018d6117b0565b90506001600160a01b03808c1660408501528a60608501528960808501528860a08501528760c085015280871660e08501525084610100840152828103610120840152611de681856117b0565b9d9c50505050505050505050505050565b808202811582820484141761164857611648611b8c565b8082018082111561164857611648611b8c56fea2646970667358221220249dc257f41346c5f58559b8b975474d32a9e9ae7d5f201e0c33b5faafbcc45c64736f6c63430008180033",
  "linkReferences": {},
  "deployedLinkReferences": {}
}